:020000040000FA
:10000000B80500203D030000450300004703000041
:10001000490300004B0300004D03000000000000F6
:100020000000000000000000000000004F0300007E
:10003000510300000000000053030000090C000001
:1000400057030000590300005B0300005D0300003C
:100050005F0300006103000063030000650300000C
:1000600067030000690300006B0300006D030000DC
:100070006F030000710300007303000075030000AC
:1000800077030000790300007B0300007D0300007C
:100090007F0300008103000083030000850300004C
:1000A00087030000890300008B0300008D0300001C
:1000B0008F030000910300009303000095030000EC
:1000C00097030000990300009B0300009D030000BC
:1000D0009F030000A1030000A3030000A50300008C
:1000E000A7030000A903000000000000AB0300000C
:1000F000AD030000AF030000B1030000B303000034
:10010000B5030000B7030000B9030000BB03000003
:100110000000000000000000BD030000BF0300005D
:10012000C1030000C3030000C5030000C7030000B3
:10013000C9030000CB030000CD030000CF03000083
:1001400000000000000000000000000000000000AF
:10015000D1030000D3030000D5030000D703000043
:10016000000000000000000000000000000000008F
:10017000000000000000000000000000000000007F
:10018000000000000000000000000000000000006F
:10019000000000000000000000000000000000005F
:1001A000000000000000000000000000000000004F
:1001B000D9030000DB030000DD030000DF030000C3
:1001C000E1030000E3030000E5030000E703000093
:1001D000E9030000EB030000ED030000EF03000063
:1001E000F1030000F3030000F5030000000000002D
:1001F00000000000F7030000F9030000FB0300000B
:10020000FD030000FF0300000000000000000000EC
:1002100001040000030400000504000007040000BE
:10022000090400000B0400000D0400000F0400008E
:10023000110400001304000015040000170400005E
:10024000190400001B0400001D0400001F0400002E
:1002500021040000230400002504000027040000FE
:10026000290400002B0400002D04000000F002F817
:1002700000F03CF80AA090E8000C82448344AAF104
:100280000107DA4501D100F031F8AFF2090EBAE802
:100290000F0013F0010F18BFFB1A43F001031847BA
:1002A000DC0E0000FC0E0000103A24BF78C878C1B4
:1002B000FAD8520724BF30C830C144BF04680C606C
:1002C000704700000023002400250026103A28BFB4
:1002D00078C1FBD8520728BF30C148BF0B607047B8
:1002E0001FB500F01BFE1FBD10B510BD00F0B3F828
:1002F0001146FFF7F5FF00F0BFFD00F0D1F803B4A1
:10030000FFF7F2FF03BC00F0D9F800000138FDD17F
:1003100070470000EFF3108072B67047EFF3108063
:100320007047EFF3108062B6704730BF704780F3BC
:1003300011887047EFF31180704700003F488047F5
:100340003F480047FEE7FEE7FEE7FEE7FEE7FEE781
:10035000FEE7FEE7FEE7FEE7FEE7FEE7FEE7FEE775
:10036000FEE7FEE7FEE7FEE7FEE7FEE7FEE7FEE765
:10037000FEE7FEE7FEE7FEE7FEE7FEE7FEE7FEE755
:10038000FEE7FEE7FEE7FEE7FEE7FEE7FEE7FEE745
:10039000FEE7FEE7FEE7FEE7FEE7FEE7FEE7FEE735
:1003A000FEE7FEE7FEE7FEE7FEE7FEE7FEE7FEE725
:1003B000FEE7FEE7FEE7FEE7FEE7FEE7FEE7FEE715
:1003C000FEE7FEE7FEE7FEE7FEE7FEE7FEE7FEE705
:1003D000FEE7FEE7FEE7FEE7FEE7FEE7FEE7FEE7F5
:1003E000FEE7FEE7FEE7FEE7FEE7FEE7FEE7FEE7E5
:1003F000FEE7FEE7FEE7FEE7FEE7FEE7FEE7FEE7D5
:10040000FEE7FEE7FEE7FEE7FEE7FEE7FEE7FEE7C4
:10041000FEE7FEE7FEE7FEE7FEE7FEE7FEE7FEE7B4
:10042000FEE7FEE7FEE7FEE7FEE7FEE7FEE7000089
:1004300004480549034A054B70470000E10D0000E0
:100440006D020000B8030020B8050020B8030020AA
:10045000704770477047754600F02CF8AE460500AF
:100460006946534620F00700854618B020B5FFF7CF
:10047000DFFFBDE820404FF000064FF000074FF0CF
:1004800000084FF0000B21F00701AC46ACE8C009B2
:10049000ACE8C009ACE8C009ACE8C0098D467047BB
:1004A00010B50446AFF300802046BDE81040FFF7CA
:1004B00026BF00000048704754030020014918205F
:1004C000ABBEFEE7260002007047012202FA01F1EE
:1004D000C1607047012202FA01F1C16082681143D4
:1004E0008160704732B1C0684FF0011202FA01F129
:1004F00008407047406801228A4042F48032104030
:1005000010F4803F08BF704740F470204FF48032F1
:1005100002FA01F1884370470A4601F00F010123F6
:100520006FF30F0203FA01F11143826A11438162F2
:10053000704730B4446989004FF00F0C0CFA01FC8D
:1005400002F00F0524EA0C048D402C434461046A38
:1005500003F0030324EA0C0C03FA01F14CEA010155
:10056000016202F00F018B1F032B84BF30BC704768
:10057000C900C3694FF0300C30390CFA01FC02F0AD
:10058000300223EA0C0302FA01F11943C16130BCC5
:10059000704700EB411000F14001002003E08B6840
:1005A00042F8043B401CCB6813F4807F18BF7047AF
:1005B0000828F4D370470268012303FA01F11143BC
:1005C0000160704710B400EB4110910050F840CF2B
:1005D0000F228A4003F00F042CEA020C8C404CEAF4
:1005E000040CC0F800C0D0F818C0C3F303242CEAF0
:1005F000020C8C404CEA040CC0F818C0D0F804C0BF
:10060000C3F303142CEA020C8C404CEA040CC0F82F
:1006100004C0D0F81CC0C3F303542CEA020C8C4075
:100620004CEA040CC0F81CC013F4702F4FF0010406
:100630000DD0D0F814C0C3F302432CEA02028B4061
:100640001A434261026904FA01F1114304E00269AC
:1006500004FA01F122EA0101016110BC70470000B7
:1006600010B5114800F092FA104800F08FFA0221FC
:100670000F4800F02BF900231A4603210D48FFF71D
:1006800058FF6223002203210A48FFF79BFF032142
:100690000848FFF790FF03210648FFF71BFF0321DF
:1006A0000448FFF712FF10BD003800F0040800F006
:1006B000004002400080034070B504464FF40065DE
:1006C000082211461C4800F01DF9002201211A4899
:1006D00000F018F900261DE000220221164800F063
:1006E00011F9A0000521B0FBF1F0284028B1042247
:1006F0001146114800F006F904E0002204210E48DA
:1007000000F000F9022211460B4800F0FBF86D10D2
:10071000701CC6B20C2EDFDB02221146064800F028
:10072000F1F801221146044800F0ECF800220821FB
:10073000014800F0E7F870BD0070004010B50022DD
:100740000821094800F0DEF801221146064800F0B1
:10075000D9F802221146044800F0D4F800220421FE
:10076000014800F0CFF810BD00700040D0F8003410
:1007700012F0010F14BF0B438B43C0F8003412F08A
:10078000020FD0F8202414BF114322EA0101C0F85F
:10079000201470472DE9F00301264FF0000C0325CB
:1007A000C2F3411706FA0CF40C4211D0D0F8C48FF2
:1007B0004FEA4C0405FA04F928EA0908C0F8C48F86
:1007C000D0F8C48F07FA04F448EA0404C0F8C44F10
:1007D0000CF1010C0CF0FF0CBCF1080FE2D3D0F8C7
:1007E00000C512F0010F14BF4CEA010C2CEA010CF9
:1007F000C0F800C5D0F804C512F0020F14BF4CEACF
:10080000010C2CEA010CC0F804C5D0F808C512F0A0
:10081000040F14BF4CEA010C2CEA010CC0F808C507
:10082000D0F818C512F0080F14BF4CEA010C2CEADE
:10083000010CC0F818C512F0100FD0F83C2514BFF9
:100840000A438A43C0F83C25D0F80C2513F0010F69
:1008500014BF0A438A43C0F80C25D0F8102513F0C2
:10086000020F14BF0A438A43C0F81025D0F814259C
:1008700013F0040F14BF0A438A43C0F81425D0F8BC
:100880001C2513F0080F14BF0A438A43C0F81C2527
:10089000D0F8442513F4007F14BF0A438A43C0F8FC
:1008A0004425D0F8402513F4407F14BF0A438A43FF
:1008B000C0F84025D0F82825002B0CBF114322EAB0
:1008C0000101C0F82815BDE8F003704730B50C46AB
:1008D00005460022FFF74AFF21462846BDE8304082
:1008E00000230122FFF756BF30B50C46054608230A
:1008F0000122FFF74FFF21462846BDE83040012284
:10090000FFF734BF40F82120704710B5FFF709FD0D
:10091000002818BF012010BD70B44B4D2A6E296FFE
:1009200011F0004F14BF01F0700002F030002028D9
:1009300008BF464818D005DC88B1102808BF4448D5
:1009400012D009E0302808BF47F230500CD0702890
:1009500008BF4FF4004007D070BC002070477C20D7
:100960003C4B00EA121018584FF0FF3311F0004FC3
:1009700002D011F4006F06D001F0004C02F40064C4
:100980005CEA040C36D1D5F860C1D5F8644104F0B6
:100990001F06C4F30424641C761C16FB04F46400D4
:1009A000B0FBF4F0CCF309044443CCF3892C00FBF6
:1009B0000CF0D5F810C004EB902042F480020CF447
:1009C000704CBCF5804F08BF234B13D009DCBCF53D
:1009D000005F08BF214B0DD0BCF5405F08BF204B26
:1009E00008E0BCF5E04F08BF1E4B03D0BCF5104F2C
:1009F00008BF1D4B12F4800F21D011F0004F19D009
:100A000011F0804F09D011F4006F0CD001F0004CB0
:100A100002F400625CEA020205D0C1F3C551491C30
:100A2000B0FBF1F00BE04000C1F38651491CB0FB74
:100A3000F1F004E0C2F3C351491CB0FBF1F0834272
:100A400038BF184670BC704700E00F4000093D00F9
:100A50000024F400300F0000005A620200B4C40405
:100A600080F0FA0240787D01002D3101434B30B413
:100A7000196E1A6F21F4800141F4006142F40064A0
:100A800019661C6721EA000212F0010F14D060F011
:100A9000010211409A159A651966D3F850C0D20226
:100AA0001CF4807F08D1521E04BF30BC7047D3F8BD
:100AB00050C01CF4807FF6D021F4FE6100F4FE6289
:100AC0001143DFF8BCC024F0700222F0004200EABB
:100AD0000C0C4CEA020200F0080C42EACC02196647
:100AE0001A6700F4005C21F4005122F400524CEA31
:100AF00001014CEA02024FF0400CC3F858C012F05A
:100B0000004F08BF19661A6718BF196621F0010166
:100B1000DFF870C021F0F86100EA0C0C4CEA01012A
:100B200022F0FC5200F0FC5C4CEA020210F0804F14
:100B300008BF22F0804209D0DFF84CC022F48002C6
:100B400000EA0C0C41F480014CEA020210F4006F40
:100B500008BF4FF400400AD1D3F868C11CF0010F60
:100B600001D1401EF8D121F4006122F4006219661F
:100B70001A6730BC1020FFF7C9BB000000E00F402F
:100B8000300000800100C00700004040C0F3072390
:100B90000749C0B2194401F07043C1F3130143EA9D
:100BA000411141EA800040F000700122026070476C
:100BB00000E60F40C0F307220849C0B2114401F01B
:100BC0007042C1F3130142EA411141EA800040F052
:100BD00000700068002818BF0120704700EA0F402D
:100BE0004FF0E020016941F00501016170474FF0CD
:100BF000E020016941F00201016170474FF0E021FE
:100C0000401E48617047000010B503216548FFF79A
:100C10005CFC03216348FFF77FFC00BF0022032137
:100C20006048FFF75FFC0028F8D05F4A03215D4869
:100C3000FFF7AFFC5D485E49096850F821005D4947
:100C40000860594800685949594A126841F8220019
:100C500057480068401C5649086008460068C82884
:100C600001D30020086050480068534909680844CF
:100C700050490968401A5049086008460068C82170
:100C8000B0FBF1F04D49086008460068FFF714FD1D
:100C90004B4800684B49086048480068B0F5FA6F57
:100CA00008D3012046490860042211464FF0402035
:100CB000FFF728FE4148006840F29E71884208D83C
:100CC00000203F490860002204214FF04020FFF738
:100CD00019FE3D480068401C3B4908603B480068DD
:100CE0003B4908603648006810B13648006828B1B2
:100CF00034480068A8B13248006890B932480068AA
:100D0000322805D930480068401E2F49086008E0A5
:100D10002D480068322804D22B480068401C2A491C
:100D2000086029480068642808D300220421294863
:100D3000FFF7E8FD00202449086008E02248006829
:100D4000322804D1042211462248FFF7DBFD1E4859
:100D50000068322825D11D480068C0431B4908603F
:100D60001D4800681D490860154800681A49086058
:100D70001A48006810B90846006828B91748006882
:100D800048B11548006830B9082211464FF040209C
:100D9000FFF7B8FD05E0002208214FF04020FFF7E3
:100DA000B1FD10BD00800340000000203400002091
:100DB0000C0000200800002010000020140000207B
:100DC000180000201C00002020000020240000202B
:100DD00028000020004002402C00002030000020AD
:100DE0001B49096841F47001194A116019491A4AEE
:100DF00011671A4911661A4911661A4911670020CC
:100E000000E0401CB0F57A7FFBD31749124A116607
:100E100016491167002000E0401CB0F57A7FFBD333
:100E200013490D4A116600BF0B49096D01F04001DD
:100E30004029F9D10F49084A11664FF0C071116776
:100E4000002000E0401C42F210718842FAD3704743
:100E500088ED00E01028800700E00F40D13A8E07AF
:100E6000422D9E0100288001420D9E010008800154
:100E7000420DDE014205DE010E48FFF7F7FDFFF7E8
:100E80004BFD0D4908600846006846F2A811B0FB0A
:100E9000F1F42046FFF7B2FEFFF7A2FEFFF7A7FE30
:100EA000FFF733FD00F00AF8FFF748FCFFF7D8FB27
:100EB00000BFFEE7400500C10400002010B5144843
:100EC000FFF764FE1248001FFFF760FE1048401E47
:100ED000FFF75CFE00BF0E48001FFFF76BFE48B92E
:100EE0000B48FFF767FE28B90948401EFFF762FE6E
:100EF0000028F0D00C214FF04020FFF7F5FC042132
:100F00000448FFF7F1FC0F210348FFF7EDFC10BD8B
:100F1000040800F000400240007000404FF04070B4
:100F2000E1EE100A7047000000688909001C4E0EAF
:100F300040420F0000201C0080841E00008025001D
:100F4000999E36000040380000093D0000803E00B8
:100F500000004B00404B4C0000204E00808D5B0099
:100F600000C05D000080700000127A0000007D006B
:100F700080969800001BB7000080BB00C0E8CE0040
:100F8000647ADA000024F4000000FA0080A812015C
:100F9000002D310100366E0140787D0140000000D7
:100FA00000000000000100003E00080000000000FA
:100FB00000010000A000000002000000000100008D
:100FC0003454010000000000000100002B700600F6
:100FD00000000000000100002800000000000000E8
:100FE00000010000270001000000000000010000D7
:100FF0002000000000000000000100005000000080
:1010000002000000000100001AAC00000000000017
:10101000000100001794090000000000000100001A
:1010200016980500000000000001000014000000F8
:101030000000000000010000138008000000000014
:1010400000010000A00000000800000000010000F6
:101050001000000000000000000100002800000057
:101060000200000000010000400000000400000039
:10107000000100006000000000000000000100000E
:101080005D000C00000000000001000050000000A6
:1010900000000000000100004E00020000000000FF
:1010A0000001000041AC0100000000000001000050
:1010B0003C00000000000000000100003A80090030
:1010C00000000000000100003000000000000000EF
:1010D00000010000280000000000000000010000E6
:1010E000270001000000000000010000236006004E
:1010F0000000000000010000216008000000000066
:10110000000100001E0000000000000000010000BF
:101110001DC004000000000000010000500000009D
:1011200002000000000100001800000000000000A4
:101130000001000014000000000000000001000099
:101140006000000004000000000100000024F40022
:1011500030003000005A6202910091000087930332
:10116000D200D20000B4C4041301130100E1F5055C
:1011700054015401000E2707950195019C110000B0
:101180000000002034000000A8020000D011000080
:101190003400002084050000C402000000000000AC
:1011A000000000000000000000000000000000003F
:1011B000000000000000000000000000000000002F
:1011C000000000000000000000000000000000001F
:040000050000033DB7
:00000001FF
